:020000040000fa
:080000000002040000000000f2
:020000040000fa
:100400000f8520000e0521000e018800000000006d
:100410000c000700a0b1240001002000110007001b
:10042000000020000000e000020032000000020096
:1004300000000000704b0200000000000040da00e5
:100440000000fe004440a900203120000000e00030
:100450000300320000002000a00188004440a800f2
:100460000000060091018800800078000000eb0089
:1004700015003700e280400032a0b4009101ba00bc
:10048000e280400032a0b4009102ba00e280400055
:1004900032a0b4000002eb00472bde00f507b200eb
:1004a000602ce10004003a000059eb008301e900f0
:1004b000fdff3e00040037006128e100010032002a
:1004c0000082eb00040007001101ba000200e00006
:1004d000e8ff3a00000006003159ba008301e90044
:1004e0000c0032002159ba008301e90008003200f3
:1004f0000400e00003003a00e280400032a0b400b3
:10050000f5ff370011d9ba008301e900faff3a007c
:100510008100e800e180400032a0b4000000060045
:100520000040da000000fe006022b8000602200051
:100530000000d0008180d2000482d2008582d200e7
:100540000000a0000202520083825a000300310022
:100550000202420083824a000000a1000603e90073
:10056000f3ff3a0000000600889fbe008a9fbe008d
:10057000010578000100e0000400350008003c009f
:100580000000e0002000320005003700600010008d
:10059000e080180002003b0001f02c001a00370038
:1005a0000004be006011b8006b0920000982cf0072
:1005b000020039000882cf000441b00069425200b5
:1005c0000e00320008003b0082817100610164006e
:1005d0008904d1000884d3008b05e8000442e800b8
:1005e000f9ff3a00050037000804440089844c00f4
:1005f0008b05e9000442e900fbff3a0077000700a1
:100600000af0a70001f0a0004f05be004f04be0095
:100610000000060003f0a200889fbe008a9fbe0073
:100620008c1f7800930007009a0033006450e100ab
:100630004f0032006420e1005200320003826c005f
:1006400007003b000905d0000306d000820f5400cc
:100650000c065d00020039000200320089017800ba
:10066000030678008582550004003d000003fd006c
:100670008103fd008502ea008b854200840f720031
:1006800002003b0060001000e08018006011b8001c
:100690000005eb007a28e1000a0039000600780026
:1006a000c75ddd00f707b200878075002d003700b9
:1006b000828171000a017800610560008180d100ab
:1006c0000080d3008502e900f9ff3b0006044000ea
:1006d0008784480002003b0060041400e0841c0092
:1006e0000988a300070032008a81710082817100ad
:1006f000610164008904d1000884d3008b05e800ff
:10070000170037000978a30013003a000b00e0003f
:10071000130034008b05e9000804440089844c0070
:100720000a4474000978a3000d003a000b00e000b1
:10073000070034008b05e9000804440089844c005c
:1007400001003a000b0020000978a300f7ff3200f7
:100750000001eb0002003700828171000a0178007d
:100760001e0007000cf0a70001f0a00052003700a7
:100770006420e10002003a00838f6c0052003300d5
:100780000801be000200be004b003700f4ff2f003e
:100790005000370064ff07000400be0000000600a0
:1007a000839f68000100e00002003d00600010002f
:1007b000e08018000300e00002003d00600111002d
:1007c000e081190058ff07004f00e00002003b00e5
:1007d00060001000e080180000000600810020008a
:1007e000618055000b003d000b00200061fe2f00d2
:1007f0000100e1001d00340082817100610164008c
:100800008904d1000884d3000000e800faff3a0010
:1008100071002000610064000300700002006000ad
:100820000900320061044400e0844c000988a500fe
:10083000050032008b05e8006808e10002003a007c
:100840008904d1000884d300f20f20000258e1008f
:1008500005003d00c75ddd00f907b2008980750025
:1008600008007800000006000bf827008b007800d5
:10087000000005000004be00310007000003be00b8
:100880000405be000200be002d000700844f750065
:10089000000006000200be006450e10005003600c2
:1008a0006420e100020036000968a30001003a005c
:1008b0000800be000160a0004f0678004f05be0092
:1008c0004f04be0000000600f0ff2f00f1ff2700dc
:1008d000f9ff3700889fbe008a9fbe00841f780002
:1008e000e4ff07004f00780011003300f0ff2f00f5
:1008f000838f6c0006003b00040565000a00a7001a
:100900000800370009f0a60010002000080037009a
:10091000820f5400838f5c00030039001000200018
:1009200001003e000000200009f0a7000000ea00de
:100930004f05be004f04be000000e00000000600ae
:10094000c70ade00f107b200f50fb200080032005e
:10095000e1cf4200020032000170a0002400050037
:10096000810f7000010032000408050044000500fa
:10097000810f700002003a00140005008502e900b2
:100980000000400081c04800fcff3b000170a00057
:04099000240005003a
:020000040000fa
:020000040002f8
:049e000098b6000010
:020000040000fa
:020000040002f8
:10a000005a2b0000000000000100000000000000ca
:10a0100000000000000000008813000000000000a5
:10a020004e0000000000000064000000000000007e
:10a030008813000000000000640000000000000021
:10a04000dc0500000000000005000000000000002a
:10a05000de0a000000000000de0a00000000000030
:10a060002c0b000000000000c800000000000000f1
:10a07000640000000000000032000000000000004a
:10a080006400000000000000080000000000000064
:10a090002003000000000000730500000000000025
:10a0a000d007000000000000640000000000000075
:10a0b000cd000000000000000200000000000000d1
:10a0c0000a00000000000000060000000000000080
:10a0d0000000000000000000f3010000000000008c
:10a0e000bb02000000000000f301000000000000bf
:10a0f000bb02000000000000e703000000000000b9
:10a10000b0040000000000000a0000000000000091
:10a110000a00000000000000f9000000000000003c
:10a120002003000000000000cd000000000000003f
:10a13000cd000000000000009600000000000000bc
:10a1400096000000000000009600000000000000e3
:10a1500000000000000000000000000000000000ff
:10a1600000000000000000000000000000000000ef
:10a1700000000000000000000000000000000000df
:10a1800000000000000000000000000000000000cf
:10a1900000000000000000000000000000000000bf
:10a1a00000000000000000000000000000000000af
:10a1b000000000000000000000000000000000009f
:10a1c000000000000000000000000000000000008f
:10a1d000000000000000000000000000000000007f
:10a1e000000000000000000000000000000000006f
:10a1f00000000000000000004457000000000000c4
:020000040000fa
:0200000401f009
:04000c00faff0000f7
:020000040000fa
:0200000401f009
:04001000beff00002f
:020000040000fa
:0200000401f009
:040014007fff00006a
:020000040000fa
:1000080090020000900200009002000090020000a0
:100018009002000090020000900200009002000090
:10002800900200000c1b000090020000d84b00005a
:1000380090020000521b0000900200009002000095
:100048009002000090020000900200009002000060
:100058009002000090020000ac45000090020000f1
:10006800103d00009e3b000090020000900200003e
:10007800281c0000900200009a1b0000e01b0000f2
:10008800900200009002000090020000b01c0000e6
:10009800900200006c1c000090020000900200001a
:1000a8009002000090020000900200009002000000
:1000b80090020000900200009002000090020000f0
:1000c80090020000900200009002000090020000e0
:1000d80090020000900200009002000090020000d0
:1000e80090020000900200009002000090020000c0
:1000f80090020000900200009002000090020000b0
:10010800900200009002000090020000900200009f
:10011800900200009002000090020000900200008f
:10012800900200009002000090020000900200007f
:10013800900200009002000090020000900200006f
:10014800900200009002000090020000900200005f
:10015800900200009002000090020000900200004f
:10016800900200009002000090020000900200003f
:10017800900200009002000090020000900200002f
:10018800900200009002000090020000900200001f
:10019800900200009002000090020000900200000f
:1001a80090020000900200009002000090020000ff
:1001b80090020000900200009002000090020000ef
:1001c80090020000900200009002000090020000df
:1001d80090020000900200009002000090020000cf
:1001e80090020000900200009002000090020000bf
:0801f8009002000090020000db
:020000040000fa
:10020800900200009002000090020000900200009e
:10021800900200009002000090020000900200008e
:10022800900200000c1b000090020000d84b000058
:1002380090020000521b0000900200009002000093
:10024800900200009002000090020000900200005e
:100258009002000090020000ac45000090020000ef
:10026800103d00009e3b000090020000900200003c
:10027800281c0000900200009a1b0000e01b0000f0
:10028800900200009002000090020000b01c0000e4
:10029800900200006c1c0000900200009002000018
:1002a80090020000900200009002000090020000fe
:1002b80090020000900200009002000090020000ee
:1002c80090020000900200009002000090020000de
:1002d80090020000900200009002000090020000ce
:1002e80090020000900200009002000090020000be
:1002f80090020000900200009002000090020000ae
:10030800900200009002000090020000900200009d
:10031800900200009002000090020000900200008d
:10032800900200009002000090020000900200007d
:10033800900200009002000090020000900200006d
:10034800900200009002000090020000900200005d
:10035800900200009002000090020000900200004d
:10036800900200009002000090020000900200003d
:10037800900200009002000090020000900200002d
:10038800900200009002000090020000900200001d
:10039800900200009002000090020000900200000d
:1003a80090020000900200009002000090020000fd
:1003b80090020000900200009002000090020000ed
:1003c80090020000900200009002000090020000dd
:1003d80090020000900200009002000090020000cd
:1003e80090020000900200009002000090020000bd
:0803f8009002000090020000d9
:020000040000fa
:020000040002f8
:10a800000000000000000000000000000000000048
:10a810000000000000000000000000000000000038
:020000040000fa
:10099400000000002110000042200000633000002d
:1009a40084400000a5500000c6600000e77000000d
:1009b40008810000299100004aa100006bb10000e9
:1009c4008cc10000add10000cee10000eff10000c9
:1009d40031120000100200007332000052220000a5
:1009e400b552000094420000f7720000d662000085
:1009f40039930000188300007bb300005aa3000061
:100a0400bdd300009cc30000fff30000dee3000040
:100a1400622400004334000020040000011400009c
:100a2400e6640000c7740000a4440000855400007c
:100a34006aa500004bb50000288500000995000058
:100a4400eee50000cff50000acc500008dd5000038
:100a54005336000072260000111600003006000014
:100a6400d7760000f666000095560000b4460000f4
:100a74005bb700007aa700001997000038870000d0
:100a8400dff70000fee700009dd70000bcc70000b0
:100a9400c4480000e558000086680000a7780000fc
:100aa40040080000611800000228000023380000fc
:100ab400ccc90000edd900008ee90000aff90000b8
:100ac40048890000699900000aa900002bb90000b8
:100ad400f55a0000d44a0000b77a0000966a000074
:100ae400711a0000500a0000333a0000122a000074
:100af400fddb0000dccb0000bffb00009eeb000030
:100b0400799b0000588b00003bbb00001aab00002f
:100b1400a66c0000877c0000e44c0000c55c00006b
:100b2400222c0000033c0000600c0000411c00006b
:100b3400aeed00008ffd0000eccd0000cddd000027
:100b44002aad00000bbd0000688d0000499d000027
:100b5400977e0000b66e0000d55e0000f44e0000e3
:100b6400133e0000322e0000511e0000700e0000e3
:100b74009fff0000beef0000dddf0000fccf00009f
:100b84001bbf00003aaf0000599f0000788f00009f
:100b940088910000a9810000cab10000eba1000007
:100ba4000cd100002dc100004ef100006fe10000e7
:100bb40080100000a1000000c2300000e32000000b
:100bc40004500000254000004670000067600000eb
:100bd400b983000098930000fba30000dab300007f
:100be4003dc300001cd300007fe300005ef300005f
:100bf400b102000090120000f3220000d232000083
:100c04003542000014520000776200005672000062
:100c1400eab50000cba50000a89500008985000076
:100c24006ef500004fe500002cd500000dc5000056
:100c3400e2340000c3240000a0140000810400007a
:100c4400667400004764000024540000054400005a
:100c5400dba70000fab7000099870000b8970000ee
:100c64005fe700007ef700001dc700003cd70000ce
:100c7400d3260000f236000091060000b0160000f2
:100c840057660000767600001546000034560000d2
:100c94004cd900006dc900000ef900002fe90000d6
:100ca400c8990000e98900008ab90000aba90000d6
:100cb40044580000654800000678000027680000da
:100cc400c0180000e108000082380000a3280000da
:100cd4007dcb00005cdb00003feb00001efb00004e
:100ce400f98b0000d89b0000bbab00009abb00004e
:100cf400754a0000545a0000376a0000167a000052
:100d0400f10a0000d01a0000b32a0000923a000051
:100d14002efd00000fed00006cdd00004dcd000045
:100d2400aabd00008bad0000e89d0000c98d000045
:100d3400267c0000076c0000645c0000454c000049
:100d4400a23c0000832c0000e01c0000c10c000049
:100d54001fef00003eff00005dcf00007cdf0000bd
:100d64009baf0000babf0000d98f0000f89f0000bd
:100d7400176e0000367e0000554e0000745e0000c1
:100d8400932e0000b23e0000d10e0000f01e0000c1
:100d940001000000feff0000010000000900000047
:100da40000000000e70300000100000060ea00000a
:100db400240000008400000001000000e80300009b
:100dc40001000000204e000001000000e8030000c4
:100dd40064000000a00f00000100000005000000f6
:100de400640000007017000064000000a00f000001
:100df40064000000a00f00000000000060ea000092
:100e040000000000640000000000000060ea000030
:100e140000000000640000000800000064000000fe
:100e240064000000a00f000064000000a00f000098
:100e34000000000060ea0000000000006400000000
:100e440000000000d00700000100000003000000c3
:100e54000000000060ea00000000000060ea0000fa
:100e640000000000a08c0000010000000e2700001c
:100e7400010000000e270000010000000e27000002
:100e8400010000000e270000010000000e270000f2
:100e9400010000000e27000000000000a08c0000ec
:100ea40000000000a08c0000010000003f1f0000b3
:100eb40000000000a00f000000000000d0070000a8
:100ec40000000000d0070000010000003f1f0000e8
:100ed400010000003f1f0000010000003f1f000050
:100ee4000d0a00000d0a00000d0a00000d0a0000a2
:100ef4000d0a000000560000312e000030300000c2
:100f040000420000202000002020000020200000db
:100f140020200000202000002020000020200000cd
:100f240020200000202000002020000020200000bd
:100f340000530000572d000031310000303900000b
:100f4400372d000031000000535700000046000018
:100f54000054000042440000004e00002f410000f5
:100f6400000000000005000003010000060400006a
:100f74000207000000030000060200000501000053
:100f840004070000531d00000b0000000c000000cb
:100f940008000000000000001f0000008b0000009b
:100fa4000000000055550000333300000f0f00000f
:040fb400ff0000003a
:020000040000fa
:100fb8000c00fa00207728000a000900305f78004a
:100fc800be00b100e645020000000000300020002d
:100fd80030d788000000eb0020d888000000eb0024
:100fe80030d888000000eb0040d888000000eb00f3
:100ff80050d888000000eb0060d888000000eb00a3
:1010080070d888000000eb00b0d788007302070092
:101018000000eb00a0d88800a10020000e00780096
:10102800e2460200000000000000eb0060d78800e4
:101038000080fa00000006000000fa00884602005e
:10104800000000000080fa00000006008000fa009e
:10105800703f98000000eb00bc2f02000000000069
:101068001007980010002000bc2f020000000000ac
:10107800000f780064004700d27728008040eb001a
:101088009f0307007e389000e20f500006003200f0
:101098007e389000e10f500006003a0030d78000fb
:1010a800e30f500003003a00e400470080c5b30096
:1010b80080487800e4004700c0c2b300d0409800e0
:1010c800640047001e01900061c0b300bc03070024
:1010d800e4004700c0c2b300d0489800640047004d
:1010e8001e017800e1c0b300b5030700e400470023
:1010f800c0c2b300d0509800c2d780006400470037
:1011080061c1b30022040700e4004700c0c2b30075
:10111800d0589800d2d7800064004700e1c1b300de
:101128001b040700e4004700c0c2b300d060980069
:10113800e2d780006400470061c2b30014040700ce
:10114800e4004700c0c2b300d0689800f2d780001e
:1011580064004700e1c2b30077040700e4004700d9
:10116800c0c2b300c070980002d880006400470075
:1011780051c3b30070040700e4004700c0c2b300c5
:10118800b078980012d8800064004700c1c3b3004b
:1011980069040700e4004700c0c2b300a0c098007b
:1011a800b2d780006400470031c4b300b30407001d
:1011b800e4004700c0c2b30090c8980010002000a7
:1011c800c82a0200000000000001780064004700ff
:1011d80053c0b300a1c4b300e2020700e400470013
:1011e800c0c2b300f0c8980020002000c82a02003e
:1011f80000000000000178006400470053c0b300fd
:1012080001c5b300d7020700e4004700c0c2b3001d
:10121800d0d098000000eb00c82a020000000000af
:10122800000178006400470053c0b30061c5b300f3
:10123800cc020700e4004700c0c2b300b0d8980051
:1012480030002000c82a02000000000000017800d9
:101258006400470053c0b300c1c5b300c102070012
:10126800e4004700c0c2b30090e0980040002000ae
:10127800c82a02000000000000017800640047004e
:1012880053c0b30021c6b300b6020700e40047000c
:10129800c0c2b300f0e0980062d780006400470045
:1012a80023c0b30081c6b300ae020700e4004700c4
:1012b800c0c2b300a0e8980064004700e2ae210075
:1012c800b1c6b3000e030700e4004700d0c0b30066
:1012d800a0f09800e4004700a0c0b300b0f0980068
:1012e800e40047000040eb00c0f0980064004700ad
:1012f80041072000e2460200000000007e3890000e
:101308000000e0003b003a00640047003278280003
:101318008040eb00fa020700e4004700c0c2b300b7
:10132800d050980022d880006400470061c1b30003
:1013380097030700e4004700c0c2b300d0589800e4
:1013480032d8800064004700e1c1b3009003070071
:10135800e4004700c0c2b300d060980042d88000c3
:101368006400470061c2b30089030700e400470036
:10137800c0c2b300d068980052d88000640047000b
:10138800e1c2b300ec030700e4004700c0c2b300a9
:10139800c070980062d880006400470051c3b30051
:1013a800e5030700e4004700c0c2b300b078980026
:1013b80072d8800064004700c1c3b300de03070091
:1013c800e4004700d0c0b300a0c09800e400470084
:1013d800a0c0b300b0c09800e40047000040eb0094
:1013e800c0c098006400470041042000e2460200a3
:1013f800000000000080fa00000006000c00fa005f
:101408003007980041079800520798004e00900056
:10141800b0d788003e009000e30f50001c003a004f
:10142800b0d780000100200010079800210798001d
:101438009e009000400d20000009b8001e0090009a
:101448006000b9000302780000024200ae0090007c
:10145800400d20000088b900000242008401780095
:1014680012079800230798001e009000ae00900015
:10147800025525000300200094020200000000002d
:1014880010079800210798001e009000b0d7880028
:1014980060d78000000f78000000eb0060d788005c
:1014a8005e0090001001070020002000e7fe070002
:1014b8001e00780060d78800480107000080fa0005
:1014c800000006003200fa00b27928008040eb00e4
:1014d8000e0078008a020700c0c2b300204f9800af
:1014e800d2772800b1c0b3000e007800840207004c
:1014f800c0c2b3000057980082d8800011c1b30061
:101508000e007800e5010700c0c2b30070579800cc
:10151800627a280081c1b3000e00780078020700c3
:10152800d0c2b300205f98002637020000000000f8
:101538000001780053c0b300b1c1b3000e007800b9
:1015480008020700d0c2b3000067980036370200cf
:10155800000000000001780013c0b30011c2b300fe
:101568000e007800ff010700c0c2b3002067980092
:1015780046370200000000000001780031c2b300c5
:101588000e007800dc020700c0c2b300006f9800ac
:1015980092d8800091c2b3000e007800bf01070006
:1015a800d0c0b300706f9800a0c0b3000077980057
:1015b8000040eb0010779800110320000e0078001f
:1015c800e246020000000000927a28008040eb000a
:1015d8000e0078004a020700c0c2b3001047980006
:1015e80066380200000000000001780021c0b30046
:1015f8000e00780072020700c0c2b300104f9800b6
:10160800763802000000000000017800a1c0b30095
:101618000e0078006a020700c0c2b3001057980095
:1016280046380200000000000001780021c1b30024
:101638000e00780062020700c0c2b300105f980075
:10164800563802000000000000017800a1c1b30074
:101658000e0078005a020700d0c0b3001067980047
:10166800a0c0b300206798000040eb0030679800e6
:10167800310220000e007800e2460200000000005f
:101688000080fa00000006000200fa00000f78004f
:101698001e00e000070032001e00780060d78800b6
:1016a8001000200069fe07000000eb00f42802008b
:1016b800000000000080fa00000006000000fa00a8
:1016c80030d780000080fa00000006000200fa000f
:1016d800000f78001e007800b0d788000080fa005c
:1016e800000006000200fa00000f78001e007800d3
:1016f80010007800c0d788009e0078006480400001
:1017080010007800d0d788009e00780068804000dc
:1017180010007800e0d788001e80e80010007800ec
:10172800f0d788009e00780066804000100078009e
:1017380000d888009e0078006a8040001000780079
:1017480010d888009e0078006c8040001000780057
:1017580020d888009e007800708040001000780033
:1017680030d888009e00780074804000100078000f
:1017780040d888009e0078006e80400010007800f5
:1017880050d888009e0078007280400010007800d1
:1017980060d888009e0078007680400010007800ad
:1017a80070d888000080fa00000006000200fa00e5
:1017b800000f78001e00780080d888000080fa00aa
:1017c800000006000200fa00000f78001e007800f2
:1017d80090d888000080fa00000006000200fa0095
:1017e800000f78001e007800a0d888000080fa005a
:1017f800000006000000fa00a0d880000080fa006f
:10180800000006000200fa00000f780071c0b30063
:10181800e0ae2100d80107001e0178008040eb00ef
:10182800e0ae21001d0107000080fa00000006005c
:101838000200fa00000f780071c0b300e0ae21008a
:10184800cd0107008041eb001e0178008040eb00cd
:10185800e0ae2100430107000080fa000000060006
:101868000200fa00000f780071c0b300e0ae21005a
:10187800c10107008041eb001e0178008040eb00a9
:10188800e0ae2100370107000080fa0000000600e2
:101898000200fa00000f780071c0b300e0ae21002a
:1018a800b5010700b27a28008040eb00e0ae2100c5
:1018b800930107000080fa00000006000200fa0009
:1018c800000f780071c0b300e0ae2100aa01070044
:1018d8001e0178008040eb00e0ae2100e70207001f
:1018e8000080fa00000006000200fa00000f7800ed
:1018f80071c0b300e0ae21009f0107001e0178000f
:101908008040eb00e0ae2100430307000080fa00ae
:10191800000006000200fa00000f780071c0b30052
:10192800e0ae2100940107001e0178008040eb0022
:10193800e0ae21007a0307000080fa0000000600ec
:101948000200fa00000f780071c0b300e0ae210079
:10195800890107001e0178008040eb00e0ae2100fd
:10196800970107000080fa00000006000200fa0054
:10197800000f780071c0b300e0ae21007e010700bf
:101988001e0178008040eb00e0ae21006a020700eb
:101998000080fa00000006000000fa0030d780003e
:1019a800e10f50000b00320071c0b300e0ae21001f
:1019b80071010700eadabf000080fb000000e800c0
:1019c800000178008041eb008040eb00e0ae210090
:1019d800e40007000080fa00000006000000fa009a
:1019e80071c0b300e0ae210063010700f27a28005d
:1019f8008040eb00e0ae2100410107000080fa00c2
:101a0800000006000000fa00d639020000000000bd
:101a180040d78800443a020000000000eafab70004
:101a280040d78000e10f500007003a00243a020036
:101a38000000000060d7880060d7800012ff070010
:101a48002e0007000700370060d780000000e00084
:101a58000200320029000700020037000000eb00f6
:101a680030d788000080fa00000006000200fa0063
:101a7800000f780060d780000000e000030032000b
:101a88000000eb0060d78800d4ff07000080fa0050
:101a9800000006000000fa00881f78000000eb0034
:101aa80040d788000000eb00f43902000000000075
:101ab800443a020000000000eafab700eadabf0080
:101ac8000084fb00c637020000000000800f5400ad
:101ad800050036000040eb00eafab7000000eb0012
:101ae800343a020000000000543a020000000000ee
:101af8004f0478000080fa00000006000000fa0099
:101b0800881f780060d78000143a020000000000a7
:101b180060d7800027000700e10f500017003a0047
:101b2800eadabf000040e800eafab700eadabf00e4
:101b38000080fb00343a02000000000040d780001b
:101b48000000e0000b003a00eadabf000084fb0066
:101b5800c637020000000000800f5400050039005d
:101b68001000200040d7880010002000f43902003f
:101b780000000000543a020000000000100020009d
:101b880030d788000000eb007e480200000000000b
:101b98001000200036480200000000004f047800c2
:101ba8000080fa00000006000000fa000080fa0039
:101bb800000006000400fa0010079800100020003a
:101bc800000f78001e0090000000e00002003a00bc
:101bd8000000eb00000f78009e009000b00220008b
:101be800808f500002003a000000eb00000f7800e0
:101bf8009e009000d0022000808f500002003a0022
:101c08000000eb00000f78009e00900060032000a9
:101c1800808f500002003a000000eb00000f7800af
:101c28009e00900070032000808f500002003a0050
:101c38000000eb00000f78009e00900020032000b9
:101c4800808f500002003a000000eb00000f78007f
:101c58001e0078000080fa00000006000400fa0068
:101c6800204798002e4090006f4060000043b0006d
:101c7800004f78009e40780090c3b30080cf50009a
:101c8800030036001e40780067404000004f78008f
:101c98001e00fb000080fa00000006000600fa00a3
:101ca800881f7800000f78002147980022079800c5
:101cb8002e4090000080fb009e00400000c3b3004f
:101cc800804878002e4090000080fb001e004000f5
:101cd8008000e80080c7b300804878002e4090005c
:101ce8000080fb001e0040000084e8002e009000e9
:101cf8004c00de00d9ff0700004c78002e40900011
:101d08000080fb001e004000630440002e0090008d
:101d18004800de00d1ff0700004c78002e409000fc
:101d28000080fb001e004000640440002e0090006c
:101d38004400de00c9ff0700004c78002e409000e8
:101d48000080fb001e004000650440002e0090004b
:101d5800c2ff0700004c78004f0478000080fa00aa
:101d6800000006001000fa0040079800214f980074
:101d780062079800634f98000000eb003007980056
:101d88002e4890008080fb003e00900000804000bc
:101d9800800078004e009000808040006e00900027
:101da800a2002000811f7800110009000280d800dd
:101db8000001780001007800cf0078000043b000ef
:101dc800804878006e009000a200200011000900f1
:101dd8000280d800600798003e0090000000e800ec
:101de800300798006e0090000000e000e4ff3a0021
:101df8000c0037002e4890008080fb003e009000c9
:101e080000804000800078004e00900080804000f4
:101e180000c3b300804878003e0090000000e8004e
:101e2800300798006e4890008080fb003e009000cc
:101e3800808f5000efff3e003e0090000000e90058
:101e4800100798000000eb002007980026003700d4
:101e58002e4890008080fb002e00900000804000fb
:101e6800800078004e00900000804000104f7800fd
:101e78002e4890008080fb002e00900000804000db
:101e8800800078004e009000008140002e489000ad
:101e98008080fb001e0090000080400080007800d9
:101ea8004e00900000804000104078000049780003
:101eb8002e4890008080fb001e00900000804000ab
:101ec800800078004e009000008040001e48780096
:101ed8001e0090000000e900100798002e009000f6
:101ee8000000e80020079800ae0090001e00900057
:101ef800808f5000d6ff39000080fa0000000600ed
:101f08000800fa0010079800414798003207980027
:101f18000000eb00000f78000c0037004e409000e6
:101f28000080fb001e004000800078001e0090002a
:101f3800008140009e0078003e0090000080400034
:101f480010407800004978001e0fe8009e007800d5
:101f58003e00900000804000104078000004e0003f
:101f680003003200800120009e0f1000ebff3600b6
:101f78000080fa00000006000600fa00100798002a
:101f8800414798000040eb00004f780007003700f9
:101f98001e80fb00800078001e00900080804000ba
:101fa80000c2b300804878001e4fe8004e40900001
:101fb8009e4f1000f6ff39000080fa00000006006e
:101fc8000600fa00000f78002147980022079800c1
:101fd800ae009000f0702200808f50001e003a0082
:101fe8002e4090000080fb009e004000a0c2b3007d
:101ff800804878002e4090000080fb001e004000c2
:102008008000e800a0c2b300804878002e4090000d
:102018000080fb001e0040008080e800e0c2b300a2
:10202800804878002e4090000080fb001e00400091
:10203800e3004000a0c2b300804878002e40900022
:102048000080fb001e004000e4004000a0c2b30076
:10205800804878001a0037002e00900042062000c1
:10206800110009000280d8000001780023c0b300e5
:10207800ae4090001e0078003aff07002e40900006
:102088000080fb001e0040008080e800e0c2b30032
:10209800804878002e0090004206200011000900b8
:1020a8000280d8008000fd00000178002e409000da
:1020b800e340400023c0b3001e00780029ff07005a
:1020c8002e4090000080fb001e004000e50040000c
:1020d80080c4b300804878002e4090000080fb0048
:1020e8001e004000e6004000a0c7b300804878000a
:1020f8000080fa00000006000600fa00000f7800d1
:1021080021479800220798002e4090000080fb008d
:102118009e00400060c5b300804878002e00900003
:1021280042062000110009000280d8000001780052
:102138002e4090008040e80013c0b3001e007800d5
:1021480008ff07002e4090000080fb001e004000a2
:102158008080e800e0c2b300804878002e0090003c
:1021680042062000110009000280d8008000fd000e
:10217800000178002e409000e340400023c0b300e7
:102188001e007800f7fe07000080fa000000060035
:102198000c00fa0010079800414798003207980091
:1021a8003e0090000000e0000e003d0010002000fe
:1021b800000f78003e0090000080ea000080e800f0
:1021c800300798004e4090000080fb0080007800a7
:1021d8001e00900080804000d0c2b3008048780084
:1021e8000c0037000000eb00000f78003e00900064
:1021f8000000e800300798004e4090000080fb0087
:10220800800078001e00900080804000b0c2b300bb
:10221800804878003e0090004b01de004e40900060
:102228008040e80013c0b3001e009000cdfe0700f8
:102238004e4090000080fb00800078001e00900057
:10224800008040008080e800e0c2b3008048780049
:102258003e00900001002000f27f200003002000d3
:10226800000278008102780002007800830078007c
:1022780000026200018062006101b8004207980014
:10228800530798004e009000de009000c000dd006b
:102298000000200040079800510798004e01900068
:1022a800de0190006120b8004007980051079800af
:1022b8004e009000de0090000001710081817100e5
:1022c80082007800803e2000000ab8006010b90043
:1022d8000503780000034300803e20000098b90001
:1022e80000034300860278004529dd004b20de000c
:1022f80000007100cb28de00000178004e409000fd
:10230800e340400033c0b3001e00900095fe070074
:102318004e4090000080fb00800078001e00900076
:1023280000804000e600400070c6b3008048780096
:102338000080fa00000006000a00fa00000f78008a
:1023480021479800220798002e0090000000e00026
:1023580003003d000000eb00200798000300370051
:102368002e0090000000e800200798002e00900042
:102378004b01de0013c0b300ae4090001e00780091
:1023880078fe07002e4090000080fb001e004000f1
:102398008000e800e0c2b300804878002e0090007a
:1023a80001002000f27f20000300200000027800d6
:1023b8008102780002007800830078000002620041
:1023c800018062006101b800320798004307980055
:1023d8003e009000ce009000c000dd00000020000c
:1023e80030079800410798003e019000ce01900008
:1023f8006120b80030079800410798003e0090001f
:10240800ce00900000017100818171008200780087
:10241800803e2000000ab8006010b900050378006b
:1024280000034300803e20000098b90000034300e9
:10243800860278004529dd004b20de00000071008f
:10244800cb28de00000178002e40900080c0e80014
:1024580033c0b3001e00780042fe07002e409000f3
:102468000080fb001e004000e500400070c6b3007d
:10247800804878000080fa00000006000a00fa0090
:10248800000f780021479800220798002e0090003e
:102498000000e800200798002e009000cf80de00a2
:1024a800b4020200000000003007980041079800bd
:1024b8002e0090000000e00008003d00020020000f
:1024c800037824003e009000ce0090000c03020028
:1024d80000000000300798004107980022bc29003e
:1024e800536a24003e009000ce009000c60302000c
:1024f800000000000000e00001003c001e00370062
:102508002e4090000080fb009e004000a0c2b30057
:10251800804878002e4090000080fb001e0040009c
:102528008000e800a0c2b300804878002e409000e8
:102538000080fb001e0040008080e800e0c2b3007d
:10254800804878002e4090000080fb001e0040006c
:10255800e3004000a0c2b300804878002e409000fd
:102568000080fb001e004000e4004000a0c2b30051
:1025780080487800200037002e009000420d20008f
:10258800110009000280d8000001780023c0b300c0
:10259800ae4090001e007800f2fd07002e4090002b
:1025a8000080fb001e0040008080e800e0c2b3000d
:1025b800804878002e009000420d2000110009008c
:1025c8000280d8008000fd008000780040062000ce
:1025d8000088b900420d2000110009000280d800cf
:1025e800000178002e409000e340400023c0b30073
:1025f8001e007800dbfd07002e4090000080fb00e5
:102608001e004000e500400060c5b3008048780027
:102618000080fa00000006000a00fa00200798006f
:1026280061479800420798004e0090000100200082
:10263800008fbe0040002000010020001e0f400057
:102648005e9748001e00be00023e200003002000e6
:1026580094020200000000000001780023c0b300cb
:10266800ee4090002e009000befd07006e409000e6
:102678000080fb00800078002e0090000080400061
:102688008080e800e0c2b300804878001e00be00e9
:10269800023e200003002000ca03020000000000e0
:1026a8000003be008600780040062000000ab8003b
:1026b8006030b900050178000001410040062000a3
:1026c80000b8b9000001410082027800023e2000f3
:1026d800030020000400be00940202000000000075
:1026e800000178006e409000e340400023c0b30032
:1026f8002e0090009bfd07006e4090000080fb00bc
:10270800800078002e00900000804000e500400026
:1027180060c5b300804878000080fa000000060019
:102728000a00fa00200798006147980042079800bd
:102738004e00900001002000008fbe00b000200075
:10274800010020001e0f40005e9748001e00be00da
:1027580052922000030020009402020000000000b2
:102768000001780023c0b300ee4090002e009000d6
:102778007cfd07006e4090000080fb008000780020
:102788002e009000008040008080e800e0c2b30086
:10279800804878001e00be005292200003002000ee
:1027a800ca030200000000000003be008600780093
:1027b80040062000000ab8006030b9000501780022
:1027c800000141004006200000b8b90000014100a6
:1027d8008202780052922000030020000400be000c
:1027e8009402020000000000000178006e40900092
:1027f800e340400023c0b3002e00900059fd0700bd
:102808006e4090000080fb00800078002e00900051
:1028180000804000e500400060c5b30080487800b3
:102828000080fa00000006000200fa0043a1a90097
:1028380042e1a8002114200091407800f0c9b300bb
:1028480000c0600042e1b7002114200091407800e8
:1028580080cfb30000c060000004a00042e1b700d0
:1028680047a1a90046e1a800611420009140780022
:10287800f0c9b30000c0600046e1b7006114200051
:102888009140780080cfb30000c060000004a00031
:1028980046e1b7005ba1a9005ae1a800a1152000f4
:1028a80091407800f0c9b30000c060005ae1b70059
:1028b800a11520009140780080cfb30000c06000cf
:1028c8000004a0005ae1b7005fa1a9005ee1a800da
:1028d800e115200091407800f0c9b30000c0600005
:1028e8005ee1b700e11520009140780080cfb30089
:1028f80000c060000004a0005ee1b700d2c2bf00c3
:102908000080fb000000d100614060006140600071
:10291800004140002108200091407800d0cfb3004a
:1029280000c060000240700082e0b700d2c2bf0061
:102938000080fb004200de006140600061406000f2
:102948004201dd002108200091407800b0cfb3009b
:1029580000c060000240700082e0b7000000eb0099
:10296800800888000080eb006008880011a1a90099
:1029780010c1a9000111200091407800f0ccb300eb
:1029880000c0600010e1b7001061a8001021a90084
:1029980084e0a90094e0a9000000eb0090088800fa
:1029a8000080eb00700888000000eb00f008880049
:1029b80000002800d00888001fa1a9001ec1a90096
:1029c800e111200091407800f0ccb30000c0600015
:1029d8001ee1b7001e21a9008760a9009760a90021
:1029e800e16820009140780000ceb30000c060008c
:1029f800a040b3008ee6b700f1682000914078004f
:102a080000ceb30000c060005040b3008fe6b700ae
:102a1800416920009140780000ceb30000c06000fa
:102a2800b040b30094e6b7005169200091407800a7
:102a380000ceb30000c060006040b30095e6b70068
:102a4800116820009140780000ceb30000c06000fb
:102a58001041b30081e6b70021682000914078005a
:102a680000ceb30000c060002041b30082e6b7008a
:102a78000040eb00004f78004a0037001e80fb0042
:102a8800c200dd00c0052100008140006000b800e0
:102a98000089be001e80fb00816d210000004000ff
:102aa8008100400010002000800878009e80fb0014
:102ab800c06a2100808040000040eb008048780018
:102ac8001e80fb00016b21000000400081004000d7
:102ad8000000eb00800878001e80fb00816b21005d
:102ae80000004000810040000000eb0080087800f2
:102af8001e80fb00016c21000000400081004000a6
:102b08000000eb00800878001e80fb00816c21002b
:102b180000004000810040000000eb0080087800c1
:102b28001e80fb00016d2100000040008100400074
:102b38000000eb00800878001e80fb00c200dd006a
:102b4800006e2100808040000000eb0080087800c3
:102b58001e80fb004200dd008080e800006e21003e
:102b6800808040000000eb00800878001e80fb0099
:102b7800c300dd00806f2100008140006000b800c4
:102b88000089be001e80fb004300dd00e400400019
:102b9800806f2100008140006000b8000089be00fd
:102ba8001e4fe80030c0b3009e4f1000b3ff360040
:102bb80010002000c082880010002000d082880009
:102bc8000040eb00004f78000d0037001e80fb002e
:102bd80080004000e0712100808040000000eb0090
:102be800800878001e80fb0080004000a071210052
:102bf800808040000000eb00800878001e4fe8004d
:102c080010c0b3009e4f1000f0ff36008420a900ca
:102c180084a0a90086c0a90086e0a9008680a90032
:102c280087a0a9008760a900410a20009140780088
:102c3800f0c8b30000c0600001c5b30001407000d7
:102c4800a4e0b700610a200091407800f0c8b30002
:102c580000c0600001c5b30001407000a6e0b700e5
:102c6800f10a20009140780080cfb30000c06000d6
:102c78005040b300afe0b700f10a2000914078005f
:102c8800f0c8b30000c0600001c5b3000140700087
:102c9800afe0b700e10a20009140780080cfb30090
:102ca80000c060005040b300aee0b700210b200028
:102cb80091407800f0c8b30000c0600001c5b300bf
:102cc80001407000b2e0b700110b2000914078007d
:102cd800f0c8b30000c0600001c2b300014070003a
:102ce800b1e0b7009420a80094a0a80096c0a8005e
:102cf80096e0a8009680a80097a0a8009760a80072
:102d080011e1a8001fe1a8000080fa0000000600f9
:102d18000200fa00000f78001e007800c0828800c8
:102d28000080fa00000006000200fa00000f780098
:102d38001e007800d08288000080fa00000006009b
:102d48000200fa000000eb00000f78000000eb0022
:102d58001d000700e10f50000400320010002000a1
:102d680019000700e10f500006003a00100020008b
:102d7800000f7800120020008000eb000000eb003c
:102d8800c1000700200020000f000700e10f5000dd
:102d980004003200300020000b000700e10f500053
:102da80006003a0010002000000f780032002000d2
:102db8002100200010002000b30007001e0078004a
:102dc8000080fa00000006000600fa0020079800bc
:102dd8000000eb00100798002e009000016f210002
:102de8000000400001004000100f78002e00900005
:102df8009e00780000004000010040008000400074
:102e0800006e21000080400010007800e10f5000a3
:102e180027003a001e00e00007003a002e0090004c
:102e2800016f2100000040008100400010002000d8
:102e380080087800060037002e009000016f2100fe
:102e480000004000810040000000eb00800878008e
:102e58002e0090009e007800000040000100400015
:102e680080004000006e2100808040000000eb00e0
:102e7800800878002e0290002e0090009e007800b6
:102e88000000400001004000c200dd00806f21000a
:102e9800008040001001be00c220dd00c0052100f6
:102ea800008040000288be00100020001007980033
:102eb8001e0090000080fa00000006000000fa00e2
:102ec800e0828000f18280000080fa0000000600a5
:102ed8000000fa0000838000118380000080fa005f
:102ee800000006000000fa00806c21001000780045
:102ef8000080fa00000006000000fa00806c210043
:102f0800100090000080fa00000006000000fa009f
:102f180020838000318380000080fa0000000600d2
:102f28000000fa0040838000518380000080fa008e
:102f3800000006000000fa00806c210020009000cc
:102f48000080fa00000006000000fa00806c2100f2
:102f5800300090000080fa00000006000200fa002d
:102f6800000f78001e0178001e007800016c210017
:102f7800000040000100400090017800816c2100b1
:102f88000200410001004000030878001e0078009c
:102f9800816c210000004000010040001000780012
:102fa8000000e000070032001e007800816c21005c
:102fb800000040000100400010007800e20f5000bf
:102fc80007003a001e007800c200dd00c00521009d
:102fd800008140006000b8000089be00280037006a
:102fe8001e007800c200dd00c005210000804000fe
:102ff8001001be00d05a210001002000800f5100ae
:10300800818f590007003e001e007800816c210066
:103018000000400081004000400020008008780047
:10302800170037001e007800c200dd00c00521002f
:10303800008040001001be00f0582100311520002a
:10304800800f5100818f5900070036001e0078005c
:10305800816c210000004000810040003000200009
:1030680080087800060037001e007800816c210077
:103078000000400081004000100020008008780017
:103088000080fa00000006000600fa00000f780031
:1030980011079800220798001e0078008000400061
:1030a800a07121000080400010007800e10f50005e
:1030b8000d003a001e009000816c210000004000c5
:1030c8008100400050002000800878002e00900009
:1030d800816c210000004000810040005000200069
:1030e80080087800040037001e0090009bff07004e
:1030f8002e00900099ff07000080fa0000000600eb
:103108001000fa00600798007107980030088000e6
:103118001007980040088000010020004007980030
:10312800510798004e009000de009000c001dd00bd
:10313800020020001e009000010020000200400054
:103148008380480040079800510798009e0090002f
:103158007e00900000805000100798001e0090002c
:103168006101b8004e009000de009000020050009f
:103178008380580040079800510798006e0090001f
:10318800816d21000000400001004000100078001f
:103198000000e00039003a006e009000016b210049
:1031a800000040000100400010007800e10f5000ce
:1031b8004a003a00ee019000ee009000c06a21003b
:1031c80000804000104078000081fb00400620008d
:1031d8000098b90002004000c200dd00c0062100ce
:1031e800008040001001be004e009000de009000fc
:1031f800020050008380580020079800310798008b
:103208006e009000016f21000000400001004000a6
:10321800100f78006e0090009e00780000004000bb
:103228000100400080004000006e210080804000c6
:1032380010002000800878006e0090009e00780042
:103248000000400001004000c200dd00806f210046
:10325800008040002e019000be0190000288be0050
:103268006e009000016c21000000400081004000c9
:103278001000200080087800180037006e009000c9
:10328800816d210000004000810040000000eb003b
:10329800800878006e009000016b2100000040005b
:1032a800810040000000eb00800878006e0090006c
:1032b800816b210000004000810040000000eb000d
:1032c800800878006e009000016c2100000040002a
:1032d800810040002000200080087800ee01900066
:1032e800ee009000c06a2100008040001040780085
:1032f8000081fb00400620000098b9000200400051
:10330800c200dd00c0062100008040004e01900090
:10331800de0190000288be00ee019000ee009000f1
:10332800c06a210000804000104078000080fb0047
:103338000000e800c2828000110009000280d80065
:103348008000fd0080407800c06a210000804100b4
:10335800014878006e009000016b210000004000d9
:1033680001004000100078000000e0001b003a0057
:10337800ee0190006e009000816b2100000040007b
:1033880001004000100078000001e800816b210076
:10339800038041000100400002087800c0828000dc
:1033a8006500b900000178006e009000816b210073
:1033b800000040000100400010007800800f51001c
:1033c80006003e006e009000016b210000004000e6
:1033d8008100400010002000800878000080fa007a
:1033e800000006000800fa00004f78001107980056
:1033f8002207980033079800d08280000000e00080
:103408007d003a001e04e0000300320070c0b300e3
:103418009e4f100006003a001e00900080004000f9
:10342800a0712100808040001000200080087800f2
:103438001e00900080004000e071210000804000e4
:10344800100078000000e00007003a001e0090001d
:1034580080004000e07121008080400010002000c2
:1034680080087800640037001e009000800040004b
:10347800e07121000080400010007800e10f50004a
:103488001f003a009e80fb00407b280061417800c5
:103498009e0090008071210000804000104078005c
:1034a800804f510006003a001e0090008000400046
:1034b800e071210080804000200020008008780012
:1034c8009e80fb00c07b2800614178009e00900030
:1034d800807121000080400010407800804f51002a
:1034e80045003a001e00900080004000e071210075
:1034f8008080400030002000800878003e003700bf
:103508009e80fb00407b2800614178009e0090006f
:10351800807121000080400010407800804f5100e9
:1035280007003a001e00900080004000e071210072
:103538000080400010007800e30f500010003200b7
:103548009e80fb00c07b2800614178009e009000af
:10355800807121000080400010407800804f5100a9
:1035680025003a001e00900080004000e071210014
:103578000080400010007800e20f50001e003a0062
:103588002e009000816d2100000040008100400065
:1035980010002000800878003e009000816d210016
:1035a80000004000810040001000200080087800e2
:1035b8001e00900080004000e071210080804000e3
:1035c8000000eb00800878002e009000016c2100bc
:1035d80000004000810040000000eb0080087800f7
:1035e8003e009000016c2100000040008100400076
:1035f8000000eb00800878001e0090008171210017
:10360800010040001e4878000080fa000000060013
:103618003600f800809fbe00829fbe00849fbe00d7
:10362800869fbe000400fa00e2430200000000008a
:10363800004f7800000a800010079800016d2100f3
:103648000000eb00800878001e80fb000000a2004c
:10365800610060000004e000030032009e0090005a
:103668000000eb00a6fe0700130020000001eb009d
:103678008000eb001e4078005aff07008420a90054
:103688000080fa004f03be004f02be004f01be008b
:103698004f00be003600f900004006003600f80072
:1036a800809fbe00829fbe00849fbe00869fbe0092
:1036b8000400fa00e243020000000000004f780016
:1036c800200a800010079800016d21000000eb001f
:1036d800900098001e80fb000000d1000000a200ae
:1036e800610060000004e000030032009e009000ca
:1036f8001000200082fe0700130020000001eb00ec
:103708008000eb001e40780036ff070084a0a90067
:103718000080fa004f03be004f02be004f01be00fa
:103728004f00be003600f900004006003600f800e1
:10373800809fbe00829fbe00849fbe00869fbe0001
:103748000400fa000c44020000000000004f78005a
:10375800c00a800010079800016d21000000eb00ee
:10376800a00098001e80fb000000a200610060001d
:103778000004e000030032009e00900020002000ba
:103788005ffe070033002000220020001100200007
:103798001e40780013ff070086c0a9000080fa00c9
:1037a8004f03be004f02be004f01be004f00be00d7
:1037b8003600f900004006003600f800809fbe0081
:1037c800829fbe00849fbe00869fbe000400fa0050
:1037d8000c44020000000000004f7800e00a80005e
:1037e80010079800016d21000000eb00b000980060
:1037f8001e80fb000000d1000000a20061006000f4
:103808000004e000030032009e0090003000200019
:103818003bfe07003300200022002000110020009a
:103828001e407800effe070086e0a9000080fa003d
:103838004f03be004f02be004f01be004f00be0046
:103848003600f900004006003600f800809fbe00f0
:10385800829fbe00849fbe00869fbe000200fa00c1
:10386800e243020000000000004f7800130020002f
:103878000001eb008000eb001e407800d9fe070035
:10388800d2c2bf000080fb000000d1006140600090
:10389800614060000041400021082000914078000c
:1038a800d0cfb30000c060000240700082e0b700d3
:1038b8008680a9000080fa004f03be004f02be00b8
:1038c8004f01be004f00be003600f9000040060060
:1038d8003600f800809fbe00829fbe00849fbe0015
:1038e800869fbe000200fa000c440200000000009f
:1038f800004f780033002000220020001100200033
:103908001e407800b7fe0700d2c2bf000080fb004f
:103918004200de0061406000614060004201dd005d
:103928002108200091407800b0cfb30000c06000ab
:103938000240700082e0b70087a0a9000080fa006a
:103948004f03be004f02be004f01be004f00be0035
:103958003600f900004006003600f800809fbe00df
:10396800829fbe00849fbe00869fbe000200fa00b0
:10397800006d2100100078008000e800006d210033
:1039880001087800006d2100100090008000e80018
:10399800006d210011009800006d210020009000aa
:1039a8008000e800006d210021009800006d2100d2
:1039b800300090008000e800006d21003100980080
:1039c800c2828000702a2000110009000280d800fd
:1039d80080007800006d210010007800808f500072
:1039e80009003900c2828000702a200011000900f5
:1039f8000280d80080007800006d2100100090003f
:103a0800808f500038003100016c21000000eb006d
:103a180080087800016c21000000eb0090009800fd
:103a2800816c21000000eb0080087800816c210087
:103a38000000eb0090009800816d2100100020002c
:103a480080087800816d2100100020009000980007
:103a5800016d21000000eb0080087800016d210055
:103a68000000eb00900098000000eb00f0b8880020
:103a7800006f21001000780080004000006e2100d7
:103a8800808040001000200080087800006f21002e
:103a98001000900000004000e4004000006e21008b
:103aa800808040001000200080087800e243020077
:103ab80000000000004f7800d08280000000e00085
:103ac80007003a001e04e0000300320070c0b30093
:103ad8009e4f100002003a0010002000d0b8880065
:103ae8001e40780018f7b700c2828000702a2000b4
:103af800110009000280d80080007800006d2100c4
:103b080020009000808f500009003900c282800098
:103b1800702a2000110009000280d8008000780077
:103b2800006d210030009000808f50003900310076
:103b3800016c21000000eb00a0009800016c21003e
:103b48000000eb00b0009800816c21000000eb0041
:103b5800a0009800816c21000000eb00b0009800e4
:103b6800816d210010002000a0009800816d2100c7
:103b780010002000b0009800016d21000000eb004b
:103b8800a0009800016d21000000eb00b000980033
:103b98000000eb0000b98800006f210020009000b1
:103ba80000004000e8004000006e210080804000d6
:103bb8001000200080087800006f2100300090007d
:103bc80000004000ec004000006e210080804000b2
:103bd80010002000800878000c440200000000005b
:103be800004f7800d08280000000e00007003a0013
:103bf8001e04e0000300320070c0b3009e4f1000a6
:103c080002003a0010002000e0b888001e4078004a
:103c180019f7b7008760a9000080fa004f03be00bb
:103c28004f02be004f01be004f00be003600f90033
:103c3800004006000400fa005e3a0200000000009e
:103c4800627c280013c0b30011c3b30030c5b300b1
:103c5800ac3a0200000000002a030700827c28001a
:103c680013c0b300c1c2b30030c5b300ac3a020000
:103c78000000000023030700a27c280013c0b30043
:103c8800d1c2b30030c5b300ac3a02000000000056
:103c98001c030700c27c280013c0b300e1c2b300b4
:103ca80030c5b300ac3a020000000000150307005d
:103cb800e27c280013c0b30081c3b30030c5b30051
:103cc800ac3a0200000000000e030700627c2800e6
:103cd80013c0b30011c3b300d0c1b300ac3a0200a3
:103ce8000000000007030700827c280013c0b3000f
:103cf800c1c2b300d0c1b300ac3a0200000000005a
:103d080000030700a27c280013c0b300d1c2b3008f
:103d1800d0c1b300ac3a020000000000f90207006d
:103d2800c27c280013c0b300e1c2b300d0c1b30005
:103d3800ac3a020000000000f2020700e27c280012
:103d480013c0b30081c3b300d0c1b300ac3a0200c2
:103d5800000000000000eb0080d588000040eb0068
:103d6800b2fab7000000eb00e0d688000000eb00d4
:103d7800f0d688000000eb0000d788000040eb0078
:103d880020479800210037000040eb0010479800ba
:103d9800180037000040eb00004f78000f00370094
:103da8002e4090008080fb001e4090000081fb00a8
:103db8009e81fb006308b90002004000000040003b
:103dc800030040008000400040ab2100808040009c
:103dd8000000eb00800878001e4fe80010c0b30018
:103de8009e4f1000eeff36001e4090000040e80095
:103df800104798001e409000e24f5000e5ff360043
:103e08002e4090000040e800204798002e40900087
:103e1800e14f5000dcff36000080fa000000060089
:103e28000600fa0016390200000000008000780041
:103e3800200320000088b90010079800f638020017
:103e4800000000000000d100000f78009e017800fb
:103e58001e019000813e200030002000182a020038
:103e68000000000006390200000000000000d10038
:103e7800000f78009e0178001e019000813e20000e
:103e880040002000182a0200000000002639020025
:103e98000000000070d6880070d68000cf80de0059
:103ea8004b09dd00c500de00810071004b00dd001c
:103eb800823e20000300200094020200000000005f
:103ec80070d68800363902000000000080d68800cd
:103ed80080d68000cf80de004b09dd00c500de0003
:103ee800810071004b00dd00823e200003002000ad
:103ef800940202000000000080d6880046390200c3
:103f08000000000090d6880090d68000cf80de00a8
:103f18004b09dd00c500de00810071004b00dd00ab
:103f2800823e2000030020009402020000000000ee
:103f380090d688005639020000000000a0d68800fc
:103f4800a0d68000cf80de004b09dd00c500de0072
:103f5800810071004b00dd00823e2000030020003c
:103f68009402020000000000a0d688006639020012
:103f780000000000b0d68800b0d68000cf80de00f8
:103f88004b09dd00c500de00810071004b00dd003b
:103f9800823e20000300200094020200000000007e
:103fa800b0d688007639020000000000c0d688002c
:103fb800c0d68000cf80de004b09dd00c500de00e2
:103fc800810071004b00dd00823e200003002000cc
:103fd8009402020000000000c0d68800a639020042
:103fe80000000000d0d688000000eb0010d7880041
:103ff8000000eb0020d78800e6380200000000002f
:10400800000f78001e007800200798002e0190000d
:10401800e20f51000a0032002e009000e30f50001a
:104028000a0032002e019000e10f51000100320019
:104038000900370040b12c0060d68800080037001e
:1040480060b12c0060d688000500370080b12c00d4
:1040580060d688000200370040b12c0060d6880086
:10406800fe490200000000000080fa00000006007f
:104078000200fa0030c5b3003a020700000f7800ca
:10408800d0c1b300370207001e0f70001e00780071
:104098000080fa00000006000200fa00863b0200d9
:1040a800000000000000e00001003200a500070049
:1040b800500020002a28020000000000e10f5000f4
:1040c80030003a000000eb00bc2f020000000000a6
:1040d80080007800d0d68000808f500007003e0016
:1040e80010002000bc2f02000000000080007800b3
:1040f800d0d68000808f500022003600863902001a
:1041080000000000000f78001e00e0000c003200e4
:1041180010d780000000e80010d7880010d7800072
:104128009e0f5000060039000000eb0010d78800f1
:104138005100200030002000842a02000000000006
:104148009639020000000000000f78001e00e00011
:104158000c00320020d780000000e80020d788003b
:1041680020d780009e0f5000060039000000eb00a9
:1041780020d788005100200040002000842a020037
:10418800000000000080fa00000006000800fa00a5
:10419800b0d5800020079800d0d58000100798007f
:1041a800f0d58000000f780070d68000800078007d
:1041b8002e009000808f50000b00360090d68000b3
:1041c800800078001e009000808f500006003600a6
:1041d800b0d680009e0f5000030036000000eb00b0
:1041e80030079800130037000000eb00bc2f0200d6
:1041f8000000000080007800d0d68000808f50003a
:1042080007003e0010002000bc2f02000000000044
:1042180080007800d0d68000808f500003003600e0
:10422800100020003007980002003700200020000e
:10423800300798003e0090000080fa000000060059
:104248000800fa00b0d5800020079800d0d580007b
:1042580010079800f0d58000000f780080d6800005
:10426800800078002e009000808f50000b003600f0
:10427800a0d68000800078001e009000808f50003b
:1042880006003600c0d680009e0f5000030036009e
:104298000000eb0030079800130037000000eb0027
:1042a800bc2f02000000000080007800d0d68000fb
:1042b800808f500007003e0010002000bc2f020035
:1042c8000000000080007800d0d68000808f500069
:1042d8000300360010002000300798000200370065
:1042e80020002000300798003e0090000080fa006f
:1042f800000006000000fa00f20c020000000000b6
:1043080060032000480b020000000000820d02003c
:10431800000000000080fa00000006000000fa001b
:10432800f20c02000000000070032000480b02009d
:1043380000000000820d0200000000000080fa006a
:10434800000006000200fa00881f780080d580006f
:10435800000f78001e007800e10f500015003200b1
:104368001e007800e10f5000070039001e00780099
:10437800e20f5000250032001e007800e30f5000c5
:104388002d00320088003700b2dabf008080fb00c1
:10439800407c28006140780012c0b30001c3b3001c
:1043a800103b0200000000001000200080d58800ab
:1043b8007d00370011c0b30030ab2100463b02003e
:1043c8000000000031ab21009140780000c8b30024
:1043d80000c06000b3fab700b3dabf000004e00021
:1043e800030032002000200080d588006e003700ce
:1043f800b2dabf000040e80061406000b2fab700de
:104408000000eb0080d5880067003700b2dabf00f3
:104418008080fb00407c28006140780062c0b300c7
:1044280021c3b300103b0200000000003000200050
:1044380080d588005c00370061c0b300a0aa2100c5
:10444800463b02000000000062d68000a4aa2100ba
:10445800b2dabf000080fb006c00b9008000780071
:1044680040ab21000080400080007800b2dabf0035
:104478000080fb0082017800040178007a4902007c
:1044880000000000b2dabf000004e00004003a00b7
:1044980040ab2100760b0200000000003c00370012
:1044a800620b0200000000000000e00010003a006b
:1044b800b6380200000000000004780086380200c8
:1044c8000000000080007800080178000040eb0040
:1044d80052000700e10f500005003a0030032000a9
:1044e800480b020000000000820d020000000000de
:1044f800620b0200000000000000e00010003a001b
:10450800c638020000000000000478009638020057
:1045180000000000800078000801780010c0b30097
:104528003e000700e10f500005003a00400320005c
:10453800480b020000000000820d0200000000008d
:10454800620b0200000000000000e00010003a00ca
:10455800d63802000000000000047800a6380200e7
:1045680000000000800078000801780020c0b30037
:104578002a000700e10f500005003a005003200010
:10458800480b020000000000820d0200000000003d
:10459800b2dabf000040e80061406000b2fab7003c
:1045a8000000eb0080d588004f0478000080fa00f6
:1045b800000006000200fa00000f78001e00e0006c
:1045c80002003d001e80ea00000fe8001e0078008f
:1045d8000080fa00000006000400fa00000f7800ce
:1045e800110798001e007800f2ff0700000f7800fe
:1045f8001e009000efff0700100798001e009000b3
:104608009e0f5000020034001e009000000f78003a
:104618001e0078000080fa00000006001a00fa0068
:1046280040579800310f9800420f98000000eb00a7
:10463800000f7800b63902000000000001002000d9
:1046480030079800410798003e009000ce00900087
:104658004b09dd00c500de00810071004b00dd0064
:10466800823e2000030020009402020000000000a7
:1046780030079800410798004e5090000080fb00da
:104688004200dd008080e80040ab2100008040004f
:1046980010007800100f98004e5090000080fb002a
:1046a8004200dd00ee00400040ab210000804000e9
:1046b80010007800000f98008e0890001e089000e7
:1046c800c5ff07006101b8003e009000ce009000d1
:1046d800800f5100818f5900420036004e0890002b
:1046e8000100200010079800210798001e00900084
:1046f800ae0090004b09dd00c500de0081007100ae
:104708004b00dd00823e20000300200094020200de
:104718000000000010079800210798009e089000ec
:104728000e08900000805000a2ff07000100200042
:1047380050079800610798005e019000ee01900014
:104748001e009000ae009000800f5100818f59002c
:1047580024003600de009000007d20000009b8002b
:104768005e0090006000b900030278000002420079
:10477800ee009000007d20000088b9000002420091
:104788008401780052079800630798009e089000fb
:104798000e089000008040006101b9005e009000a2
:1047a800ee009000d00302000000000050079800bf
:1047b800610798003e0890000000e0000900320000
:1047c8003e0890006101b8005e009000ee00900085
:1047d800800f5100818f590002003d001000200019
:1047e800000f7800100020009e0f10002d003a00e6
:1047f8000000eb00000f7800c6390200000000003e
:10480800700798004e5090000080fb008000400028
:10481800c0ad210000804000900078007e0090002c
:10482800808f5000340031004e5090008081fb0092
:104838004e5090000080fb0080004000c0ad210079
:1048480000804000100078000001e80083804100eb
:10485800c0ad210000804000020878004e50900052
:104868000080fb0080004000c0ad210000804000b7
:10487800900078007e009000808f50001e00390064
:1048880040ab2100760b0200000000000e089000eb
:10489800ba0c02000000000010002000000f780091
:1048a800150037004e5090000080fb00800040004b
:1048b800c0ad210000804000100078000000e0003a
:1048c8000d0032004e5090008081fb004e50900049
:1048d8000080fb0080004000c0ad21000080400047
:1048e800100078000001e90083804100c0ad21007c
:1048f80000804000020878001e0078000080fa005e
:10490800000006000000fa0030002000c82802005d
:104918000000000002003700e84702000000000025
:10492800863b0200000000000000e00005003a009d
:104938003000200008280200000000000000e0000d
:10494800f5ff3200863b0200000000000000e00096
:1049580002003a00943a0200000000000080fa00c9
:10496800000006002000fa00605f98000000eb00dd
:10497800000f7800e3ff070012c0b3008040eb008f
:104988006e589000103b020000000000ddff070099
:1049980011c0b300a0aa2100463b0200000000009d
:1049a800aadabf00fb4f4000010032001e00a00041
:1049b8006000b800500f9800610f98006000b800c0
:1049c800300f9800410f98006000b800100f980051
:1049d800210f98000000eb00100798002e00370008
:1049e80062c0b30021c3b3006e589000103b0200b0
:1049f80000000000c3ff070061c0b300a0aa2100a7
:104a0800463b020000000000a0aa210090007800a8
:104a1800210798002e0090006101b9005e089000ff
:104a2800ee0890000000410081804900500f980076
:104a3800610f9800c0aa2100900078002107980013
:104a48002e0090006101b9003e089000ce08900049
:104a58000000410081804900300f9800410f980004
:104a6800e0aa210090007800210798002e0090000d
:104a78006101b9001e089000ae08900000004100d6
:104a880081804900100f9800210f98001e009000a7
:104a98000000e800100798009e009000f0632000d6
:104aa800808f5000ceff3600027d280013c0b3006f
:104ab80011c3b3006e589000ac3a02000000000029
:104ac800800c2000c2270200000000008dff0700b4
:104ad8006000b80070079800010f98006000b800e7
:104ae80050079800610798006000b80030079800e8
:104af800410798000000eb00100798002e003700cf
:104b080062c0b30021c3b3006e589000103b02008e
:104b1800000000007bff070061c0b300a0aa2100cd
:104b2800463b020000000000a0aa21009000780087
:104b3800210798002e0090006101b9007e009000c6
:104b48008e0890000000410081804900700798009d
:104b5800010f9800c0aa2100900078002107980052
:104b68002e0090006101b9005e009000ee009000f8
:104b780000004100818049005007980061079800b3
:104b8800e0aa210090007800210798002e009000ec
:104b98006101b9003e009000ce0090000000410085
:104ba8008180490030079800410798001e00900056
:104bb8000000e800100798009e009000f0632000b5
:104bc800808f5000ceff3600627c280013c0b300ef
:104bd80011c3b3006e589000ac3a02000000000008
:104be8005e089000ee089000026420000300200098
:104bf800d003020000000000500f9800610f9800d9
:104c08003e089000ce0890000264200003002000b7
:104c1800d003020000000000300f9800410f9800f8
:104c28001e089000ae0890000264200003002000d7
:104c3800d003020000000000100f9800210f980018
:104c48007e0090008e08900002642000030020007f
:104c5800d00302000000000070079800010f9800c0
:104c68005e009000ee009000026420000300200027
:104c7800d003020000000000500798006107980068
:104c88003e009000ce009000026420000300200047
:104c9800d003020000000000300798004107980088
:104ca800fe0090005e0890000080500041fe070062
:104cb80001002000500f9800610f9800de0090005e
:104cc8003e089000008050003afe070001002000d6
:104cd800300f9800410f9800be0090001e08900009
:104ce8000080500033fe070001002000100f9800dc
:104cf800210f98005e099000ee0990001005200031
:104d080001002000800f5100818f590007003400f6
:104d18005e099000ee099000f039200001002000a3
:104d2800800f5100818f5900010034001e10a0002f
:104d38003e099000ce0990001005200001002000d7
:104d4800800f5100818f5900070034003e09900000
:104d5800ce099000f039200001002000800f51009a
:104d6800818f5900010034001e20a0001e09900008
:104d7800ae0990001007200001002000800f5100ac
:104d8800818f5900070034001e099000ae09900079
:104d9800f04e200001002000800f5100818f590043
:104da800010034001e30a0001e0078000080fa00c8
:104db800000006000200fa000040eb0027fab700e6
:104dc8000040eb00004f7800070037001e80fb0012
:104dd80061a4210000004000810040000000eb00b9
:104de800800878001e4fe80030c0b3009e4f1000c6
:104df800f6ff36000040eb00004f78000700370050
:104e08001e80fb0080004000e0a42100808040005c
:104e18000000eb00800878001e4fe80050c0b30087
:104e28009e4f1000f6ff36000040eb00004f780060
:104e3800070037001e80fb0080004000a0a521006d
:104e4800808040000000eb00800878001e4fe800da
:104e580040c0b3009e4f1000f6ff3600803e200091
:104e680060d38800a00f200070d38800d0072000ee
:104e780080d38800401f200090d38800a000200025
:104e8800a0d3880020032000b0d3880041a62100c9
:104e9800007122008008780041a6210000e2240069
:104ea8009000980041a6210040062000a00098002c
:104eb80041a6210090012000b00098000000eb00fe
:104ec800c0d388000000eb00d0d388000000eb00be
:104ed800e0d388000000eb00f0d388000000eb006e
:104ee80000d488001000200080d188001000200025
:104ef80090d1880010002000a0d188001000200068
:104f0800b0d1880010002000c0d188001000200017
:104f1800d0d1880081a221000000eb008008780031
:104f280081a221000000eb009000980081a22100de
:104f38000000eb00a000980081a221000000eb0017
:104f4800b000980020002000e0d188002000200058
:104f5800f0d188002000200000d288002000200026
:104f680010d288002000200020d28800b44b020014
:104f7800000000000080fa00000006000200fa00ad
:104f8800000f78009e00780020002000a400070091
:104f9800200020007c00070004003700e8470200da
:104fa800000000002008020000000000200020008f
:104fb800150007000000e000f8ff32000080fa004a
:104fc800000006000400fa00100798001e00900078
:104fd80081a221000000400001004000100078007c
:104fe800e10f500003003a0010002000000f780085
:104ff800020037000000eb00000f78001e00780068
:105008000080fa00000006000400fa00100798006b
:105018001e00900081a22100000040000100400015
:1050280010007800e30f500003003a001000200041
:10503800000f7800020037000000eb00000f780036
:105048001e0078000080fa00000006000400fa0044
:10505800100798001e0090008000400000a3210067
:105068000080400010007800e30f500009003a006b
:1050780010002000000f78001e0090008000400003
:1050880000a32100808040001000200080087800e4
:10509800020037000000eb00000f78001e007800c7
:1050a8000080fa00000006000400fa0010079800cb
:1050b8001e00900080004000c0a321000080400036
:1050c80010007800e30f500009003a00100020009b
:1050d800000f78001e00900080004000c0a321004f
:1050e80080804000400020008008780002003700df
:1050f8000000eb00000f78001e0078000080fa0026
:10510800000006000200fa00000f78001e00780078
:1051180081a221000000400001004000100078003a
:105128000000e00006003a001e00780081a221007d
:105138000000400081004000100020008008780036
:105148000080fa00000006000200fa00000f780054
:105158001e00780081a2210000004000810040006c
:105168000000eb00800878001e00780061a4210090
:1051780000004000810040000000eb00800878003b
:105188000080fa00000006000200fa00000f780014
:105198001e00780081a2210000004000810040002c
:1051a8000000eb00800878001e00780061a4210050
:1051b80000004000810040000000eb0080087800fb
:1051c8001e00780081a221000000400081004000fc
:1051d80010002000800878000080fa000000060017
:1051e8000200fa00000f78001e00780080004000de
:1051f800e0a42100808040000000eb0080087800d7
:105208001e0078008000400000a32100808040003c
:1052180010002000800878000080fa0000000600d6
:105228000400fa00000f7800110798001e007800ab
:1052380081a2210000004000810040000000eb0036
:10524800800878001e00780061a42100000040005a
:10525800810040000000eb00800878001e00780004
:1052680041a6210000004000010040009e0090007f
:10527800010878000080fa00000006000400fa0027
:10528800000f7800110798001e0078008000400089
:10529800c0a321000080400010007800e30f5000f8
:1052a8005f0032001e00780080004000c0a321008b
:1052b8000080400010007800e40f500058003200d1
:1052c8001e0078008000400080a721000080400078
:1052d800100078000000e000510032001e0090002d
:1052e8000000e00021003a001e0078008000400025
:1052f800c0a321000080400010007800e10f50009a
:105308001a0032001e0078008000400000aa210028
:10531800808040000000eb00800878001e007800c4
:105328008000400020a82100008040001000780084
:105338000000e000070032001e00780080004000f6
:10534800c0a3210080804000100020008008780061
:10535800060037001e00780080004000c0a321002e
:10536800808040000000eb00800878001e0090005c
:10537800e10f500021003a001e0078008000400034
:10538800c0a321000080400010007800e20f500008
:105398001a0032001e0078008000400060a9210039
:1053a800808040000000eb00800878001e00780034
:1053b80080004000c0a82100008040001000780054
:1053c8000000e000070032001e0078008000400066
:1053d800c0a32100808040002000200080087800c1
:1053e800060037001e00780080004000c0a321009e
:1053f800808040000000eb00800878001e009000cc
:10540800e20f500006003a001e00780080004000bd
:10541800c0a32100808040000000eb0080087800d5
:105428000080fa00000006000800fa00000f78006b
:105438001107980022079800330798003e00900053
:105448000000e00002003a000000eb00100798009e
:105458001e0078008000400020a821000080400045
:105468009e009000010878001e007800800040002f
:10547800c0a8210000804000ae009000010878001c
:105488001e0078008000400080a7210000804000b6
:10549800be009000010878001e00780080004000df
:1054a800a0a52100808040000000eb008008780063
:1054b8001e00780080004000c0a3210080804000ca
:1054c8000000eb00800878001e0078008000400093
:1054d80060a92100808040000000eb00800878006f
:1054e8001e0078008000400000aa21008080400053
:1054f8000000eb00800878000080fa000000060039
:105508000800fa0020079800310798002e00900044
:105518008000400080a72100008040001000780033
:1055280001002000008fbe001e00be00e00f5000ea
:10553800e08f5800120032003e0090000100200069
:105548001e0f40005e97480000a62e0001002000b4
:10555800be0f1000ae8f18000300360000a62e0004
:1055680001002000008fbe002e0090001e01780070
:105578008000400080a721000080400002087800d9
:105588000080fa00000006000400fa0010079800e6
:105598001e00900080004000a0a52100008040006f
:1055a800100f78001e0078000080fa000000060046
:1055b8000000fa000040eb0026fab7002c00370084
:1055c80026dabf008081fb0026dabf000080fb00de
:1055d80080004000e0a42100008040001000780016
:1055e8000001e80083804100e0a421000080400021
:1055f8000208780026dabf000080fb008000400027
:10560800e0a42100008040001001780026dabf00e5
:105618000080fb0080004000c0a621000080400000
:1056280010007800800f51000e00390026dabf0004
:105638000080fb008000400000a321008080400023
:10564800300020008008780026dabf000080fb00c8
:1056580080004000e0a42100808040000000eb00b2
:105668008008780026dabf000040e80026fab70074
:1056780026dabf00e54f5000d1ff36000040eb00ae
:1056880026fab7002d00370026dabf000080fb009d
:1056980081a22100000040000100400010007800b5
:1056a800e10f500022003a0026dabf008081fb009b
:1056b80026dabf000080fb0061a421000000400042
:1056c80001004000100078000001e80061a42100fa
:1056d80003804100010040000208780026dabf007c
:1056e8000080fb0061a42100000040000100400090
:1056f8001001780026dabf000080fb0041a62100d7
:10570800000040000100400010007800800f5100a8
:105718000700390026dabf000080fb0081a22100c3
:105728000000400081004000300020008008780020
:1057380026dabf000040e80026fab70026dabf00e4
:10574800e34f5000d0ff36000040eb0026fab700c8
:105758008e00370026dabf000080fb008000400082
:10576800c0a321000080400010007800e10f500025
:1057780044003a0026dabf008081fb0026dabf0029
:105788000080fb008000400060a9210000804000ec
:10579800100078000001e8008380410060a9210022
:1057a800008040000208780026dabf000080fb0075
:1057b8008000400060a921000080400010017800ae
:1057c80026dabf000080fb008000400020a82100ee
:1057d8000080400010007800800f5100140039004c
:1057e80026dabf008081fb0026dabf000080fb00bc
:1057f80080004000a0a52100008040001000780033
:105808000001e80083804100a0a52100008040003d
:105818000208780026dabf000080fb008000400004
:1058280060a92100808040000000eb00800878001b
